{
  "contractName": "AKUniswapV2ERC20",
  "abi": [
    {
      "inputs": [],
      "stateMutability": "nonpayable",
      "type": "constructor"
    },
    {
      "anonymous": false,
      "inputs": [
        {
          "indexed": true,
          "internalType": "address",
          "name": "owner",
          "type": "address"
        },
        {
          "indexed": true,
          "internalType": "address",
          "name": "spender",
          "type": "address"
        },
        {
          "indexed": false,
          "internalType": "uint256",
          "name": "value",
          "type": "uint256"
        }
      ],
      "name": "Approval",
      "type": "event"
    },
    {
      "anonymous": false,
      "inputs": [
        {
          "indexed": true,
          "internalType": "address",
          "name": "from",
          "type": "address"
        },
        {
          "indexed": true,
          "internalType": "address",
          "name": "to",
          "type": "address"
        },
        {
          "indexed": false,
          "internalType": "uint256",
          "name": "value",
          "type": "uint256"
        }
      ],
      "name": "Transfer",
      "type": "event"
    },
    {
      "inputs": [],
      "name": "DOMAIN_SEPARATOR",
      "outputs": [
        {
          "internalType": "bytes32",
          "name": "",
          "type": "bytes32"
        }
      ],
      "stateMutability": "view",
      "type": "function"
    },
    {
      "inputs": [],
      "name": "PERMIT_TYPEHASH",
      "outputs": [
        {
          "internalType": "bytes32",
          "name": "",
          "type": "bytes32"
        }
      ],
      "stateMutability": "view",
      "type": "function"
    },
    {
      "inputs": [
        {
          "internalType": "address",
          "name": "",
          "type": "address"
        },
        {
          "internalType": "address",
          "name": "",
          "type": "address"
        }
      ],
      "name": "allowance",
      "outputs": [
        {
          "internalType": "uint256",
          "name": "",
          "type": "uint256"
        }
      ],
      "stateMutability": "view",
      "type": "function"
    },
    {
      "inputs": [
        {
          "internalType": "address",
          "name": "",
          "type": "address"
        }
      ],
      "name": "balanceOf",
      "outputs": [
        {
          "internalType": "uint256",
          "name": "",
          "type": "uint256"
        }
      ],
      "stateMutability": "view",
      "type": "function"
    },
    {
      "inputs": [],
      "name": "decimals",
      "outputs": [
        {
          "internalType": "uint8",
          "name": "",
          "type": "uint8"
        }
      ],
      "stateMutability": "view",
      "type": "function"
    },
    {
      "inputs": [],
      "name": "name",
      "outputs": [
        {
          "internalType": "string",
          "name": "",
          "type": "string"
        }
      ],
      "stateMutability": "view",
      "type": "function"
    },
    {
      "inputs": [
        {
          "internalType": "address",
          "name": "",
          "type": "address"
        }
      ],
      "name": "nonces",
      "outputs": [
        {
          "internalType": "uint256",
          "name": "",
          "type": "uint256"
        }
      ],
      "stateMutability": "view",
      "type": "function"
    },
    {
      "inputs": [],
      "name": "symbol",
      "outputs": [
        {
          "internalType": "string",
          "name": "",
          "type": "string"
        }
      ],
      "stateMutability": "view",
      "type": "function"
    },
    {
      "inputs": [],
      "name": "totalSupply",
      "outputs": [
        {
          "internalType": "uint256",
          "name": "",
          "type": "uint256"
        }
      ],
      "stateMutability": "view",
      "type": "function"
    },
    {
      "inputs": [
        {
          "internalType": "address",
          "name": "spender",
          "type": "address"
        },
        {
          "internalType": "uint256",
          "name": "value",
          "type": "uint256"
        }
      ],
      "name": "approve",
      "outputs": [
        {
          "internalType": "bool",
          "name": "",
          "type": "bool"
        }
      ],
      "stateMutability": "nonpayable",
      "type": "function"
    },
    {
      "inputs": [
        {
          "internalType": "address",
          "name": "to",
          "type": "address"
        },
        {
          "internalType": "uint256",
          "name": "value",
          "type": "uint256"
        }
      ],
      "name": "transfer",
      "outputs": [
        {
          "internalType": "bool",
          "name": "",
          "type": "bool"
        }
      ],
      "stateMutability": "nonpayable",
      "type": "function"
    },
    {
      "inputs": [
        {
          "internalType": "address",
          "name": "from",
          "type": "address"
        },
        {
          "internalType": "address",
          "name": "to",
          "type": "address"
        },
        {
          "internalType": "uint256",
          "name": "value",
          "type": "uint256"
        }
      ],
      "name": "transferFrom",
      "outputs": [
        {
          "internalType": "bool",
          "name": "",
          "type": "bool"
        }
      ],
      "stateMutability": "nonpayable",
      "type": "function"
    },
    {
      "inputs": [
        {
          "internalType": "address",
          "name": "owner",
          "type": "address"
        },
        {
          "internalType": "address",
          "name": "spender",
          "type": "address"
        },
        {
          "internalType": "uint256",
          "name": "value",
          "type": "uint256"
        },
        {
          "internalType": "uint256",
          "name": "deadline",
          "type": "uint256"
        },
        {
          "internalType": "uint8",
          "name": "v",
          "type": "uint8"
        },
        {
          "internalType": "bytes32",
          "name": "r",
          "type": "bytes32"
        },
        {
          "internalType": "bytes32",
          "name": "s",
          "type": "bytes32"
        }
      ],
      "name": "permit",
      "outputs": [],
      "stateMutability": "nonpayable",
      "type": "function"
    }
  ],
  "bytecode": "0x60806040523480156200001157600080fd5b5060004690507f8b73c3c69bb8fe3d512ecc4cf759cc79239f7b179b0ffacaa9a75d522b39400f6040518060400160405280600c81526020017f414b556e69737761702056320000000000000000000000000000000000000000815250805190602001206040518060400160405280600181526020017f3100000000000000000000000000000000000000000000000000000000000000815250805190602001208330604051602001620000ca95949392919062000168565b6040516020818303038152906040528051906020012060038190555050620001c5565b6000819050919050565b6200010281620000ed565b82525050565b6000819050919050565b6200011d8162000108565b82525050565b600073ffffffffffffffffffffffffffffffffffffffff82169050919050565b6000620001508262000123565b9050919050565b620001628162000143565b82525050565b600060a0820190506200017f6000830188620000f7565b6200018e6020830187620000f7565b6200019d6040830186620000f7565b620001ac606083018562000112565b620001bb608083018462000157565b9695505050505050565b6110d780620001d56000396000f3fe608060405234801561001057600080fd5b50600436106100cf5760003560e01c80633644e5151161008c57806395d89b411161006657806395d89b411461022a578063a9059cbb14610248578063d505accf14610278578063dd62ed3e14610294576100cf565b80633644e515146101ac57806370a08231146101ca5780637ecebe00146101fa576100cf565b806306fdde03146100d4578063095ea7b3146100f257806318160ddd1461012257806323b872dd1461014057806330adf81f14610170578063313ce5671461018e575b600080fd5b6100dc6102c4565b6040516100e991906109e3565b60405180910390f35b61010c60048036038101906101079190610a9e565b6102fd565b6040516101199190610af9565b60405180910390f35b61012a610314565b6040516101379190610b23565b60405180910390f35b61015a60048036038101906101559190610b3e565b61031a565b6040516101679190610af9565b60405180910390f35b61017861044a565b6040516101859190610baa565b60405180910390f35b610196610471565b6040516101a39190610be1565b60405180910390f35b6101b4610476565b6040516101c19190610baa565b60405180910390f35b6101e460048036038101906101df9190610bfc565b61047c565b6040516101f19190610b23565b60405180910390f35b610214600480360381019061020f9190610bfc565b610494565b6040516102219190610b23565b60405180910390f35b6102326104ac565b60405161023f91906109e3565b60405180910390f35b610262600480360381019061025d9190610a9e565b6104e5565b60405161026f9190610af9565b60405180910390f35b610292600480360381019061028d9190610c81565b6104fc565b005b6102ae60048036038101906102a99190610d23565b610724565b6040516102bb9190610b23565b60405180910390f35b6040518060400160405280600c81526020017f414b556e6973776170205632000000000000000000000000000000000000000081525081565b600061030a338484610749565b6001905092915050565b60005481565b600080600260008673ffffffffffffffffffffffffffffffffffffffff1673ffffffffffffffffffffffffffffffffffffffff16815260200190815260200160002060003373ffffffffffffffffffffffffffffffffffffffff1673ffffffffffffffffffffffffffffffffffffffff1681526020019081526020016000205411156104345781600260008673ffffffffffffffffffffffffffffffffffffffff1673ffffffffffffffffffffffffffffffffffffffff16815260200190815260200160002060003373ffffffffffffffffffffffffffffffffffffffff1673ffffffffffffffffffffffffffffffffffffffff168152602001908152602001600020600082825461042c9190610d92565b925050819055505b61043f848484610834565b600190509392505050565b7f6e71edae12b1b97f4d1f60370fef10105fa2faae0126114a169c64845d6126c960001b81565b601281565b60035481565b60016020528060005260406000206000915090505481565b60046020528060005260406000206000915090505481565b6040518060400160405280600681526020017f554e492d5632000000000000000000000000000000000000000000000000000081525081565b60006104f2338484610834565b6001905092915050565b4284101561053f576040517f08c379a000000000000000000000000000000000000000000000000000000000815260040161053690610e12565b60405180910390fd5b60006003547f6e71edae12b1b97f4d1f60370fef10105fa2faae0126114a169c64845d6126c960001b898989600460008e73ffffffffffffffffffffffffffffffffffffffff1673ffffffffffffffffffffffffffffffffffffffff16815260200190815260200160002060008154809291906105bb90610e32565b919050558a6040516020016105d596959493929190610e8a565b604051602081830303815290604052805190602001206040516020016105fc929190610f63565b6040516020818303038152906040528051906020012090506000600182868686604051600081526020016040526040516106399493929190610f9a565b6020604051602081039080840390855afa15801561065b573d6000803e3d6000fd5b505050602060405103519050600073ffffffffffffffffffffffffffffffffffffffff168173ffffffffffffffffffffffffffffffffffffffff16141580156106cf57508873ffffffffffffffffffffffffffffffffffffffff168173ffffffffffffffffffffffffffffffffffffffff16145b61070e576040517f08c379a00000000000000000000000000000000000000000000000000000000081526004016107059061102b565b60405180910390fd5b610719898989610749565b505050505050505050565b6002602052816000526040600020602052806000526040600020600091509150505481565b80600260008573ffffffffffffffffffffffffffffffffffffffff1673ffffffffffffffffffffffffffffffffffffffff16815260200190815260200160002060008473ffffffffffffffffffffffffffffffffffffffff1673ffffffffffffffffffffffffffffffffffffffff168152602001908152602001600020819055508173ffffffffffffffffffffffffffffffffffffffff168373ffffffffffffffffffffffffffffffffffffffff167f8c5be1e5ebec7d5bd14f71427d1e84f3dd0314c0f7b2291e5b200ac8c7c3b925836040516108279190610b23565b60405180910390a3505050565b80600160008573ffffffffffffffffffffffffffffffffffffffff1673ffffffffffffffffffffffffffffffffffffffff16815260200190815260200160002060008282546108839190610d92565b9250508190555080600160008473ffffffffffffffffffffffffffffffffffffffff1673ffffffffffffffffffffffffffffffffffffffff16815260200190815260200160002060008282546108d9919061104b565b925050819055508173ffffffffffffffffffffffffffffffffffffffff168373ffffffffffffffffffffffffffffffffffffffff167fddf252ad1be2c89b69c2b068fc378daa952ba7f163c4a11628f55a4df523b3ef8360405161093d9190610b23565b60405180910390a3505050565b600081519050919050565b600082825260208201905092915050565b60005b83811015610984578082015181840152602081019050610969565b83811115610993576000848401525b50505050565b6000601f19601f8301169050919050565b60006109b58261094a565b6109bf8185610955565b93506109cf818560208601610966565b6109d881610999565b840191505092915050565b600060208201905081810360008301526109fd81846109aa565b905092915050565b600080fd5b600073ffffffffffffffffffffffffffffffffffffffff82169050919050565b6000610a3582610a0a565b9050919050565b610a4581610a2a565b8114610a5057600080fd5b50565b600081359050610a6281610a3c565b92915050565b6000819050919050565b610a7b81610a68565b8114610a8657600080fd5b50565b600081359050610a9881610a72565b92915050565b60008060408385031215610ab557610ab4610a05565b5b6000610ac385828601610a53565b9250506020610ad485828601610a89565b9150509250929050565b60008115159050919050565b610af381610ade565b82525050565b6000602082019050610b0e6000830184610aea565b92915050565b610b1d81610a68565b82525050565b6000602082019050610b386000830184610b14565b92915050565b600080600060608486031215610b5757610b56610a05565b5b6000610b6586828701610a53565b9350506020610b7686828701610a53565b9250506040610b8786828701610a89565b9150509250925092565b6000819050919050565b610ba481610b91565b82525050565b6000602082019050610bbf6000830184610b9b565b92915050565b600060ff82169050919050565b610bdb81610bc5565b82525050565b6000602082019050610bf66000830184610bd2565b92915050565b600060208284031215610c1257610c11610a05565b5b6000610c2084828501610a53565b91505092915050565b610c3281610bc5565b8114610c3d57600080fd5b50565b600081359050610c4f81610c29565b92915050565b610c5e81610b91565b8114610c6957600080fd5b50565b600081359050610c7b81610c55565b92915050565b600080600080600080600060e0888a031215610ca057610c9f610a05565b5b6000610cae8a828b01610a53565b9750506020610cbf8a828b01610a53565b9650506040610cd08a828b01610a89565b9550506060610ce18a828b01610a89565b9450506080610cf28a828b01610c40565b93505060a0610d038a828b01610c6c565b92505060c0610d148a828b01610c6c565b91505092959891949750929550565b60008060408385031215610d3a57610d39610a05565b5b6000610d4885828601610a53565b9250506020610d5985828601610a53565b9150509250929050565b7f4e487b7100000000000000000000000000000000000000000000000000000000600052601160045260246000fd5b6000610d9d82610a68565b9150610da883610a68565b925082821015610dbb57610dba610d63565b5b828203905092915050565b7f556e697377617056323a20455850495245440000000000000000000000000000600082015250565b6000610dfc601283610955565b9150610e0782610dc6565b602082019050919050565b60006020820190508181036000830152610e2b81610def565b9050919050565b6000610e3d82610a68565b91507fffffffffffffffffffffffffffffffffffffffffffffffffffffffffffffffff821415610e7057610e6f610d63565b5b600182019050919050565b610e8481610a2a565b82525050565b600060c082019050610e9f6000830189610b9b565b610eac6020830188610e7b565b610eb96040830187610e7b565b610ec66060830186610b14565b610ed36080830185610b14565b610ee060a0830184610b14565b979650505050505050565b600081905092915050565b7f1901000000000000000000000000000000000000000000000000000000000000600082015250565b6000610f2c600283610eeb565b9150610f3782610ef6565b600282019050919050565b6000819050919050565b610f5d610f5882610b91565b610f42565b82525050565b6000610f6e82610f1f565b9150610f7a8285610f4c565b602082019150610f8a8284610f4c565b6020820191508190509392505050565b6000608082019050610faf6000830187610b9b565b610fbc6020830186610bd2565b610fc96040830185610b9b565b610fd66060830184610b9b565b95945050505050565b7f556e697377617056323a20494e56414c49445f5349474e415455524500000000600082015250565b6000611015601c83610955565b915061102082610fdf565b602082019050919050565b6000602082019050818103600083015261104481611008565b9050919050565b600061105682610a68565b915061106183610a68565b9250827fffffffffffffffffffffffffffffffffffffffffffffffffffffffffffffffff0382111561109657611095610d63565b5b82820190509291505056fea26469706673582212202a7b095f2fd966ca2f8f646149431fe083d9d371c54b1f88730f296f9057d1a364736f6c634300080a0033",
  "immutableReferences": {},
  "source": "// SPDX-License-Identifier: MIT\npragma solidity 0.8.10;\n\n\nimport './interfaces/IAKUniswapV2ERC20.sol';\n\ncontract AKUniswapV2ERC20 is IAKUniswapV2ERC20 {\n\n    string public constant name = 'AKUniswap V2';\n    string public constant symbol = 'UNI-V2';\n    uint8 public constant decimals = 18;\n    uint  public totalSupply;\n    mapping(address => uint) public balanceOf;\n    mapping(address => mapping(address => uint)) public allowance;\n\n    bytes32 public DOMAIN_SEPARATOR;\n    // keccak256(\"Permit(address owner,address spender,uint256 value,uint256 nonce,uint256 deadline)\");\n    bytes32 public constant PERMIT_TYPEHASH = 0x6e71edae12b1b97f4d1f60370fef10105fa2faae0126114a169c64845d6126c9;\n    mapping(address => uint) public nonces;\n    \n    constructor() {\n        uint chainId;\n        assembly {\n            chainId := chainid()\n        }\n        DOMAIN_SEPARATOR = keccak256(\n            abi.encode(\n                keccak256('EIP712Domain(string name,string version,uint256 chainId,address verifyingContract)'),\n                keccak256(bytes(name)),\n                keccak256(bytes('1')),\n                chainId,\n                address(this)\n            )\n        );\n    }\n\n    function _mint(address to, uint value) internal {\n        totalSupply += value;\n        balanceOf[to] += value;\n        emit Transfer(address(0), to, value);\n    }\n\n    function _burn(address from, uint value) internal {\n        balanceOf[from] -= value;\n        totalSupply -= value;\n        emit Transfer(from, address(0), value);\n    }\n\n    function _approve(address owner, address spender, uint value) private {\n        allowance[owner][spender] = value;\n        emit Approval(owner, spender, value);\n    }\n\n    function _transfer(address from, address to, uint value) private {\n        balanceOf[from] -= value;\n        balanceOf[to] += value;\n        emit Transfer(from, to, value);\n    }\n\n    function approve(address spender, uint value) external returns (bool) {\n        _approve(msg.sender, spender, value);\n        return true;\n    }\n\n    function transfer(address to, uint value) external returns (bool) {\n        _transfer(msg.sender, to, value);\n        return true;\n    }\n\n    function transferFrom(address from, address to, uint value) external returns (bool) {\n        if (allowance[from][msg.sender] > 0) {\n            allowance[from][msg.sender] -= value;\n        }\n        _transfer(from, to, value);\n        return true;\n    }\n\n    function permit(address owner, address spender, uint value, uint deadline, uint8 v, bytes32 r, bytes32 s) external {\n        require(deadline >= block.timestamp, 'UniswapV2: EXPIRED');\n        bytes32 digest = keccak256(\n            abi.encodePacked(\n                '\\x19\\x01',\n                DOMAIN_SEPARATOR,\n                keccak256(abi.encode(PERMIT_TYPEHASH, owner, spender, value, nonces[owner]++, deadline))\n            )\n        );\n        address recoveredAddress = ecrecover(digest, v, r, s);\n        require(recoveredAddress != address(0) && recoveredAddress == owner, 'UniswapV2: INVALID_SIGNATURE');\n        _approve(owner, spender, value);\n    }\n}\n",
  "sourcePath": "/home/kojche/Documents/projects/alyra/courseCode/defi-alyra/contracts/UniswapV2/AKUniswapV2ERC20.sol",
  "compiler": {
    "name": "solc",
    "version": "0.8.10+commit.fc410830.Emscripten.clang"
  },
  "schemaVersion": "3.4.3",
  "updatedAt": "2021-12-07T09:32:57.176Z",
  "devdoc": {
    "kind": "dev",
    "methods": {},
    "version": 1
  },
  "userdoc": {
    "kind": "user",
    "methods": {},
    "version": 1
  }
}